:100000000C9456000C9460000C9460000C946000FA
:100010000C9460000C9460000C9460000C946000E0
:100020000C9460000C9460000C9460000C946000D0
:100030000C9460000C9460000C9460000C946000C0
:100040000C9460000C9460000C9460000C946000B0
:100050000C9460000C9460000C9460000C946000A0
:100060000C9460000C9460000C9460000C94600090
:100070000C9460000C9460000C9460000C94600080
:100080000C9460000C9460000C9460000C94600070
:100090000C9460000C9460000C9460000C94600060
:1000A0000C9460000C9460000C94600011241FBE3E
:1000B000CFEFDAE0DEBFCDBF0E9462000C94970064
:1000C0000C9400003E9A809191008460809391008E
:1000D000809191008D7F80939100809191008E7F1F
:1000E000809391008091910088608093910080912D
:1000F0009000816080939000809191008F7E80932A
:100100009100809190008D7F80939000809190006D
:10011000806880939000809190008F7B8093900006
:100120008FEB90E09093990080939800FFCFF89424
:02013000FFCFFF
:00000001FF
