:100000000C9456000C9460000C9460000C946000FA
:100010000C9460000C9460000C9460000C946000E0
:100020000C9460000C9460000C9460000C946000D0
:100030000C9460000C9460000C9460000C946000C0
:100040000C9460000C9460000C9460000C946000B0
:100050000C9460000C9460000C9460000C946000A0
:100060000C9460000C9460000C9460000C94600090
:100070000C9460000C9460000C9460000C94600080
:100080000C9460000C9460000C9460000C94600070
:100090000C9460000C9460000C9460000C94600060
:1000A0000C9460000C9460000C94600011241FBE3E
:1000B000CFEFDAE0DEBFCDBF0E94BE000C941E0180
:1000C0000C940000FC0120E030E0C901BF010E9457
:1000D000F60070939900609398008FE396E0019783
:1000E000F1F700C000002F5F3F4F211591E0390765
:1000F00061F72FEF30E0C901BF010E94F600709355
:100100009900609398008FEF98E10197F1F700C094
:1001100000002150310978F720E030E0C901BF012B
:100120000E94F60070939900609398008FE29CE023
:100130000197F1F700C000002F5F3F4F20383105D5
:1001400069F72FE730E0C901BF010E94F600709304
:1001500099006093980087E391E30197F1F700C05D
:1001600000002150310978F72FEF87EA91E62150FE
:1001700080409040E1F700C0000008953E9A8091D1
:1001800091008B7F80939100809191008260809399
:100190009100809191008160809391008091910005
:1001A000886080939100809190008160809390009E
:1001B000809191008F7E80939100809190008D7F3F
:1001C000809390008091900080688093900080914F
:1001D00090008F7B80939000C1E0D0E0CE010E9420
:1001E00062002196C531D105C9F7F6CF97FB072EDE
:1001F00016F4009407D077FD09D00E940A0107FC8D
:1002000005D03EF4909581959F4F08957095619526
:100210007F4F0895AA1BBB1B51E107C0AA1FBB1F3C
:10022000A617B70710F0A61BB70B881F991F5A9582
:10023000A9F780959095BC01CD010895F894FFCF62
:00000001FF
