:100000000C9456000C9460000C9460000C946000FA
:100010000C9460000C9460000C9460000C946000E0
:100020000C9460000C9460000C9460000C946000D0
:100030000C9460000C9460000C9460000C946000C0
:100040000C9460000C9460000C9460000C946000B0
:100050000C9460000C9460000C9460000C946000A0
:100060000C9460000C9460000C9460000C94600090
:100070000C9460000C9460000C9460000C94600080
:100080000C9460000C9460000C9460000C94600070
:100090000C9460000C9460000C9460000C94600060
:1000A0000C9460000C9460000C94600011241FBE3E
:1000B000CFEFDAE0DEBFCDBF0E9462000C948C006F
:1000C0000C94000080E88093610088E080936100D8
:1000D000269A809191008460809391008091910094
:1000E0008D7F80939100809191008E7F809391000D
:1000F000109295001092940090E420919400309119
:10010000950028303105C8F385B1892785B910924B
:0C011000950010929400F1CFF894FFCFFE
:00000001FF
