:100000000C9456000C9460000C9460000C946000FA
:100010000C9460000C9460000C9460000C946000E0
:100020000C9460000C9460000C9460000C946000D0
:100030000C9460000C9460000C9460000C946000C0
:100040000C9460000C9460000C9460000C946000B0
:100050000C9460000C9460000C9460000C946000A0
:100060000C9460000C9460000C9460000C94600090
:100070000C9460000C9460000C9460000C94600080
:100080000C9460000C9460000C9460000C94600070
:100090000C9460000C9460000C9460000C94600060
:1000A0000C9460000C9460000C94600011241FBE3E
:1000B000CFEFDAE0DEBFCDBF0E9462000C94870074
:1000C0000C94000080E484B9809191008460809356
:1000D0009100809191008D7F80939100809191009B
:1000E0008E7F80939100109295001092940090E47E
:1000F00020919400309195002B313640C8F385B1A2
:10010000892785B91092950010929400F1CFF89448
:02011000FFCF1F
:00000001FF
