:100000000C9456000C9460000C9460000C946000FA
:100010000C9460000C9460000C9460000C946000E0
:100020000C9460000C9460000C9460000C946000D0
:100030000C9460000C9460000C9460000C946000C0
:100040000C9460000C9460000C9460000C946000B0
:100050000C9460000C9460000C9460000C946000A0
:100060000C9460000C9460000C9460000C94600090
:100070000C9460000C9460000C9460000C94600080
:100080000C9460000C9460000C9460000C94600070
:100090000C9460000C9460000C9460000C94600060
:1000A0000C9460000C9460000C94600011241FBE3E
:1000B000CFEFDAE0DEBFCDBF0E94AA000C94DD00D6
:1000C0000C94000080E090E0909399008093980059
:1000D000EFE3F6E03197F1F700C0000001968115DB
:1000E000F1E09F0789F78FEF90E09093990080935C
:1000F0009800EFEFF8E13197F1F700C000000197A9
:10010000A0F7089580E090E0909399008093980084
:10011000EFE2FCE03197F1F700C000000196803873
:10012000910591F78FE790E0909399008093980064
:10013000E7E3F1E33197F1F700C000000197A0F782
:100140002FEF87EA91E6215080409040E1F700C010
:10015000000008953E9A809191008B7F80939100DA
:1001600080919100826080939100809191008160E4
:10017000809391008091910088608093910080919C
:100180009000816080939000809191008F7E809399
:100190009100809190008D7F8093900080919000DD
:1001A000806880939000809190008F7B8093900076
:0E01B0000E9462000E948200FBCFF894FFCFF5
:00000001FF
